{
  "contractName": "Energy",
  "abi": [
    {
      "inputs": [],
      "payable": false,
      "stateMutability": "nonpayable",
      "type": "constructor"
    },
    {
      "constant": true,
      "inputs": [],
      "name": "admin",
      "outputs": [
        {
          "internalType": "address",
          "name": "admin_account",
          "type": "address"
        }
      ],
      "payable": false,
      "stateMutability": "view",
      "type": "function"
    },
    {
      "constant": true,
      "inputs": [
        {
          "internalType": "uint256",
          "name": "",
          "type": "uint256"
        }
      ],
      "name": "approved",
      "outputs": [
        {
          "internalType": "address",
          "name": "from",
          "type": "address"
        },
        {
          "internalType": "address",
          "name": "to",
          "type": "address"
        },
        {
          "internalType": "int256",
          "name": "kwh",
          "type": "int256"
        },
        {
          "internalType": "int256",
          "name": "price_c",
          "type": "int256"
        },
        {
          "internalType": "int256",
          "name": "id",
          "type": "int256"
        },
        {
          "internalType": "bool",
          "name": "approve_from",
          "type": "bool"
        },
        {
          "internalType": "bool",
          "name": "approve_to",
          "type": "bool"
        },
        {
          "internalType": "bool",
          "name": "optimal",
          "type": "bool"
        }
      ],
      "payable": false,
      "stateMutability": "view",
      "type": "function"
    },
    {
      "constant": true,
      "inputs": [
        {
          "internalType": "int256",
          "name": "",
          "type": "int256"
        }
      ],
      "name": "approved_trades",
      "outputs": [
        {
          "internalType": "address",
          "name": "from",
          "type": "address"
        },
        {
          "internalType": "address",
          "name": "to",
          "type": "address"
        },
        {
          "internalType": "int256",
          "name": "kwh",
          "type": "int256"
        },
        {
          "internalType": "int256",
          "name": "price_c",
          "type": "int256"
        },
        {
          "internalType": "int256",
          "name": "id",
          "type": "int256"
        },
        {
          "internalType": "bool",
          "name": "approve_from",
          "type": "bool"
        },
        {
          "internalType": "bool",
          "name": "approve_to",
          "type": "bool"
        },
        {
          "internalType": "bool",
          "name": "optimal",
          "type": "bool"
        }
      ],
      "payable": false,
      "stateMutability": "view",
      "type": "function"
    },
    {
      "constant": true,
      "inputs": [],
      "name": "dual_tol",
      "outputs": [
        {
          "internalType": "int256",
          "name": "",
          "type": "int256"
        }
      ],
      "payable": false,
      "stateMutability": "view",
      "type": "function"
    },
    {
      "constant": true,
      "inputs": [],
      "name": "global_dres",
      "outputs": [
        {
          "internalType": "int256",
          "name": "",
          "type": "int256"
        }
      ],
      "payable": false,
      "stateMutability": "view",
      "type": "function"
    },
    {
      "constant": true,
      "inputs": [],
      "name": "global_pres",
      "outputs": [
        {
          "internalType": "int256",
          "name": "",
          "type": "int256"
        }
      ],
      "payable": false,
      "stateMutability": "view",
      "type": "function"
    },
    {
      "constant": true,
      "inputs": [],
      "name": "init",
      "outputs": [
        {
          "internalType": "bool",
          "name": "",
          "type": "bool"
        }
      ],
      "payable": false,
      "stateMutability": "view",
      "type": "function"
    },
    {
      "constant": true,
      "inputs": [],
      "name": "is_optimal",
      "outputs": [
        {
          "internalType": "bool",
          "name": "",
          "type": "bool"
        }
      ],
      "payable": false,
      "stateMutability": "view",
      "type": "function"
    },
    {
      "constant": true,
      "inputs": [],
      "name": "iteration",
      "outputs": [
        {
          "internalType": "uint256",
          "name": "",
          "type": "uint256"
        }
      ],
      "payable": false,
      "stateMutability": "view",
      "type": "function"
    },
    {
      "constant": true,
      "inputs": [],
      "name": "iteration_complete",
      "outputs": [
        {
          "internalType": "bool",
          "name": "",
          "type": "bool"
        }
      ],
      "payable": false,
      "stateMutability": "view",
      "type": "function"
    },
    {
      "constant": true,
      "inputs": [
        {
          "internalType": "address",
          "name": "",
          "type": "address"
        }
      ],
      "name": "localres",
      "outputs": [
        {
          "internalType": "address",
          "name": "from",
          "type": "address"
        },
        {
          "internalType": "int256",
          "name": "primal_res",
          "type": "int256"
        },
        {
          "internalType": "int256",
          "name": "dual_res",
          "type": "int256"
        },
        {
          "internalType": "uint256",
          "name": "iteration",
          "type": "uint256"
        }
      ],
      "payable": false,
      "stateMutability": "view",
      "type": "function"
    },
    {
      "constant": true,
      "inputs": [],
      "name": "localresCounter",
      "outputs": [
        {
          "internalType": "uint256",
          "name": "",
          "type": "uint256"
        }
      ],
      "payable": false,
      "stateMutability": "view",
      "type": "function"
    },
    {
      "constant": true,
      "inputs": [
        {
          "internalType": "uint256",
          "name": "",
          "type": "uint256"
        }
      ],
      "name": "localres_list",
      "outputs": [
        {
          "internalType": "address",
          "name": "from",
          "type": "address"
        },
        {
          "internalType": "int256",
          "name": "primal_res",
          "type": "int256"
        },
        {
          "internalType": "int256",
          "name": "dual_res",
          "type": "int256"
        },
        {
          "internalType": "uint256",
          "name": "iteration",
          "type": "uint256"
        }
      ],
      "payable": false,
      "stateMutability": "view",
      "type": "function"
    },
    {
      "constant": true,
      "inputs": [],
      "name": "numApprovedTrades",
      "outputs": [
        {
          "internalType": "uint256",
          "name": "",
          "type": "uint256"
        }
      ],
      "payable": false,
      "stateMutability": "view",
      "type": "function"
    },
    {
      "constant": true,
      "inputs": [
        {
          "internalType": "address",
          "name": "",
          "type": "address"
        }
      ],
      "name": "peers",
      "outputs": [
        {
          "internalType": "int256",
          "name": "id",
          "type": "int256"
        },
        {
          "internalType": "address",
          "name": "account",
          "type": "address"
        },
        {
          "internalType": "bool",
          "name": "prosumer",
          "type": "bool"
        },
        {
          "internalType": "uint8",
          "name": "building",
          "type": "uint8"
        },
        {
          "internalType": "bool",
          "name": "isPeerActive",
          "type": "bool"
        },
        {
          "internalType": "uint256",
          "name": "num_trades_pending",
          "type": "uint256"
        }
      ],
      "payable": false,
      "stateMutability": "view",
      "type": "function"
    },
    {
      "constant": true,
      "inputs": [],
      "name": "peersCount",
      "outputs": [
        {
          "internalType": "int256",
          "name": "",
          "type": "int256"
        }
      ],
      "payable": false,
      "stateMutability": "view",
      "type": "function"
    },
    {
      "constant": true,
      "inputs": [],
      "name": "peersTrading",
      "outputs": [
        {
          "internalType": "uint256",
          "name": "",
          "type": "uint256"
        }
      ],
      "payable": false,
      "stateMutability": "view",
      "type": "function"
    },
    {
      "constant": true,
      "inputs": [],
      "name": "pri_tol",
      "outputs": [
        {
          "internalType": "int256",
          "name": "",
          "type": "int256"
        }
      ],
      "payable": false,
      "stateMutability": "view",
      "type": "function"
    },
    {
      "constant": true,
      "inputs": [],
      "name": "tradeCountIter",
      "outputs": [
        {
          "internalType": "uint256",
          "name": "",
          "type": "uint256"
        }
      ],
      "payable": false,
      "stateMutability": "view",
      "type": "function"
    },
    {
      "constant": true,
      "inputs": [
        {
          "internalType": "int256",
          "name": "",
          "type": "int256"
        }
      ],
      "name": "trade_bids_mapping",
      "outputs": [
        {
          "internalType": "address",
          "name": "from",
          "type": "address"
        },
        {
          "internalType": "address",
          "name": "to",
          "type": "address"
        },
        {
          "internalType": "int256",
          "name": "kwh",
          "type": "int256"
        },
        {
          "internalType": "int256",
          "name": "price",
          "type": "int256"
        },
        {
          "internalType": "uint256",
          "name": "iteration",
          "type": "uint256"
        },
        {
          "internalType": "int256",
          "name": "id",
          "type": "int256"
        }
      ],
      "payable": false,
      "stateMutability": "view",
      "type": "function"
    },
    {
      "constant": true,
      "inputs": [],
      "name": "trade_penCount",
      "outputs": [
        {
          "internalType": "uint256",
          "name": "",
          "type": "uint256"
        }
      ],
      "payable": false,
      "stateMutability": "view",
      "type": "function"
    },
    {
      "constant": true,
      "inputs": [
        {
          "internalType": "uint256",
          "name": "",
          "type": "uint256"
        }
      ],
      "name": "trades_pending",
      "outputs": [
        {
          "internalType": "address",
          "name": "from",
          "type": "address"
        },
        {
          "internalType": "address",
          "name": "to",
          "type": "address"
        },
        {
          "internalType": "int256",
          "name": "kwh",
          "type": "int256"
        },
        {
          "internalType": "int256",
          "name": "price_c",
          "type": "int256"
        },
        {
          "internalType": "int256",
          "name": "id",
          "type": "int256"
        },
        {
          "internalType": "bool",
          "name": "approve_from",
          "type": "bool"
        },
        {
          "internalType": "bool",
          "name": "approve_to",
          "type": "bool"
        },
        {
          "internalType": "bool",
          "name": "optimal",
          "type": "bool"
        }
      ],
      "payable": false,
      "stateMutability": "view",
      "type": "function"
    },
    {
      "constant": true,
      "inputs": [
        {
          "internalType": "int256",
          "name": "",
          "type": "int256"
        }
      ],
      "name": "trades_pending_mapping",
      "outputs": [
        {
          "internalType": "address",
          "name": "from",
          "type": "address"
        },
        {
          "internalType": "address",
          "name": "to",
          "type": "address"
        },
        {
          "internalType": "int256",
          "name": "kwh",
          "type": "int256"
        },
        {
          "internalType": "int256",
          "name": "price_c",
          "type": "int256"
        },
        {
          "internalType": "int256",
          "name": "id",
          "type": "int256"
        },
        {
          "internalType": "bool",
          "name": "approve_from",
          "type": "bool"
        },
        {
          "internalType": "bool",
          "name": "approve_to",
          "type": "bool"
        },
        {
          "internalType": "bool",
          "name": "optimal",
          "type": "bool"
        }
      ],
      "payable": false,
      "stateMutability": "view",
      "type": "function"
    },
    {
      "constant": false,
      "inputs": [
        {
          "internalType": "address",
          "name": "new_admin",
          "type": "address"
        }
      ],
      "name": "setAdmin",
      "outputs": [],
      "payable": false,
      "stateMutability": "nonpayable",
      "type": "function"
    },
    {
      "constant": false,
      "inputs": [
        {
          "internalType": "address",
          "name": "acc",
          "type": "address"
        },
        {
          "internalType": "bool",
          "name": "role",
          "type": "bool"
        },
        {
          "internalType": "uint8",
          "name": "build",
          "type": "uint8"
        }
      ],
      "name": "addPeer",
      "outputs": [],
      "payable": false,
      "stateMutability": "nonpayable",
      "type": "function"
    },
    {
      "constant": false,
      "inputs": [
        {
          "internalType": "string",
          "name": "date_set",
          "type": "string"
        },
        {
          "internalType": "uint256",
          "name": "time_period",
          "type": "uint256"
        }
      ],
      "name": "startTradingPer",
      "outputs": [],
      "payable": false,
      "stateMutability": "nonpayable",
      "type": "function"
    },
    {
      "constant": false,
      "inputs": [],
      "name": "registerPeer",
      "outputs": [],
      "payable": false,
      "stateMutability": "nonpayable",
      "type": "function"
    },
    {
      "constant": false,
      "inputs": [
        {
          "internalType": "address",
          "name": "s",
          "type": "address"
        },
        {
          "internalType": "address",
          "name": "buy",
          "type": "address"
        },
        {
          "internalType": "int256",
          "name": "amount",
          "type": "int256"
        },
        {
          "internalType": "int256",
          "name": "price_c",
          "type": "int256"
        }
      ],
      "name": "addTradeBid",
      "outputs": [],
      "payable": false,
      "stateMutability": "nonpayable",
      "type": "function"
    },
    {
      "constant": false,
      "inputs": [
        {
          "internalType": "int256",
          "name": "p_res",
          "type": "int256"
        },
        {
          "internalType": "int256",
          "name": "d_res",
          "type": "int256"
        }
      ],
      "name": "addLocalRes",
      "outputs": [],
      "payable": false,
      "stateMutability": "nonpayable",
      "type": "function"
    },
    {
      "constant": false,
      "inputs": [
        {
          "internalType": "address",
          "name": "from",
          "type": "address"
        },
        {
          "internalType": "address",
          "name": "to",
          "type": "address"
        },
        {
          "internalType": "int256",
          "name": "amount",
          "type": "int256"
        },
        {
          "internalType": "int256",
          "name": "price",
          "type": "int256"
        }
      ],
      "name": "createTrade",
      "outputs": [],
      "payable": false,
      "stateMutability": "nonpayable",
      "type": "function"
    },
    {
      "constant": false,
      "inputs": [
        {
          "internalType": "address",
          "name": "trade_from",
          "type": "address"
        },
        {
          "internalType": "address",
          "name": "trade_to",
          "type": "address"
        },
        {
          "internalType": "int256",
          "name": "trade_kwh",
          "type": "int256"
        },
        {
          "internalType": "int256",
          "name": "trade_price_c",
          "type": "int256"
        },
        {
          "internalType": "int256",
          "name": "id",
          "type": "int256"
        },
        {
          "internalType": "bool",
          "name": "trade_approve_from",
          "type": "bool"
        },
        {
          "internalType": "bool",
          "name": "trade_approve_to",
          "type": "bool"
        },
        {
          "internalType": "bool",
          "name": "trade_optimal",
          "type": "bool"
        },
        {
          "internalType": "string",
          "name": "date_approved",
          "type": "string"
        },
        {
          "internalType": "uint256",
          "name": "time_approved",
          "type": "uint256"
        },
        {
          "internalType": "int256",
          "name": "trades_pending_ind",
          "type": "int256"
        }
      ],
      "name": "approveTrade",
      "outputs": [],
      "payable": false,
      "stateMutability": "nonpayable",
      "type": "function"
    },
    {
      "constant": false,
      "inputs": [],
      "name": "deregisterPeer",
      "outputs": [],
      "payable": false,
      "stateMutability": "nonpayable",
      "type": "function"
    }
  ],
  "bytecode": "0x608060405234801561001057600080fd5b50604051806020016040528073c7accd8f7f5fde77560ca0deefde6ee12adabe6173ffffffffffffffffffffffffffffffffffffffff16815250600260008201518160000160006101000a81548173ffffffffffffffffffffffffffffffffffffffff021916908373ffffffffffffffffffffffffffffffffffffffff1602179055509050506001600081905550600180819055506000600881905550612ba5806100bc6000396000f3fe608060405234801561001057600080fd5b50600436106101f05760003560e01c80637fc408f71161010f578063d629057d116100a2578063e1c7392a11610071578063e1c7392a14610c6c578063ef27bccc14610c8e578063f6167d5314610cac578063f851a44014610d83576101f0565b8063d629057d14610a81578063d74294dc14610b58578063d98a69c314610bf1578063dbeb98b814610c0f576101f0565b8063a955f29f116100de578063a955f29f1461097e578063acbfcf0414610a3b578063ae6664e014610a45578063c43642b614610a63576101f0565b80637fc408f7146107ab5780638c18ba291461087057806398209b26146108e85780639a7d94e314610960576101f0565b80633850442b116101875780636e563eb6116101565780636e563eb6146105eb578063704b6c021461060d57806370e088eb146106515780637d4061e6146106d4576101f0565b80633850442b146104b65780633f9705301461058d57806343c3ffe8146105af5780636168474f146105cd576101f0565b80631edbfef4116101c35780631edbfef41461031e578063209544351461033c5780632e9adb7b146103465780633122862614610498576101f0565b80630c0399a4146101f5578063163cdcc5146102135780631a87df1f1461024b5780631c8590ba14610269575b600080fd5b6101fd610dcd565b6040518082815260200191505060405180910390f35b6102496004803603604081101561022957600080fd5b810190808035906020019092919080359060200190929190505050610dd3565b005b610253610f80565b6040518082815260200191505060405180910390f35b6102ab6004803603602081101561027f57600080fd5b81019080803573ffffffffffffffffffffffffffffffffffffffff169060200190929190505050610f86565b604051808781526020018673ffffffffffffffffffffffffffffffffffffffff1673ffffffffffffffffffffffffffffffffffffffff168152602001851515151581526020018460ff1660ff16815260200183151515158152602001828152602001965050505050505060405180910390f35b610326611009565b6040518082815260200191505060405180910390f35b61034461100f565b005b610496600480360361016081101561035d57600080fd5b81019080803573ffffffffffffffffffffffffffffffffffffffff169060200190929190803573ffffffffffffffffffffffffffffffffffffffff169060200190929190803590602001909291908035906020019092919080359060200190929190803515159060200190929190803515159060200190929190803515159060200190929190803590602001906401000000008111156103fc57600080fd5b82018360208201111561040e57600080fd5b8035906020019184600183028401116401000000008311171561043057600080fd5b91908080601f016020809104026020016040519081016040528093929190818152602001838380828437600081840152601f19601f8201169050808301925050505050505091929192908035906020019092919080359060200190929190505050611172565b005b6104a06115be565b6040518082815260200191505060405180910390f35b6104e2600480360360208110156104cc57600080fd5b81019080803590602001909291905050506115c4565b604051808973ffffffffffffffffffffffffffffffffffffffff1673ffffffffffffffffffffffffffffffffffffffff1681526020018873ffffffffffffffffffffffffffffffffffffffff1673ffffffffffffffffffffffffffffffffffffffff1681526020018781526020018681526020018581526020018415151515815260200183151515158152602001821515151581526020019850505050505050505060405180910390f35b610595611680565b604051808215151515815260200191505060405180910390f35b6105b7611693565b6040518082815260200191505060405180910390f35b6105d5611699565b6040518082815260200191505060405180910390f35b6105f361169f565b604051808215151515815260200191505060405180910390f35b61064f6004803603602081101561062357600080fd5b81019080803573ffffffffffffffffffffffffffffffffffffffff1690602001909291905050506116b2565b005b61067d6004803603602081101561066757600080fd5b8101908080359060200190929190505050611756565b604051808573ffffffffffffffffffffffffffffffffffffffff1673ffffffffffffffffffffffffffffffffffffffff16815260200184815260200183815260200182815260200194505050505060405180910390f35b610700600480360360208110156106ea57600080fd5b81019080803590602001909291905050506117b3565b604051808973ffffffffffffffffffffffffffffffffffffffff1673ffffffffffffffffffffffffffffffffffffffff1681526020018873ffffffffffffffffffffffffffffffffffffffff1673ffffffffffffffffffffffffffffffffffffffff1681526020018781526020018681526020018581526020018415151515815260200183151515158152602001821515151581526020019850505050505050505060405180910390f35b61086e600480360360408110156107c157600080fd5b81019080803590602001906401000000008111156107de57600080fd5b8201836020820111156107f057600080fd5b8035906020019184600183028401116401000000008311171561081257600080fd5b91908080601f016020809104026020016040519081016040528093929190818152602001838380828437600081840152601f19601f8201169050808301925050505050505091929192908035906020019092919050505061186f565b005b6108e66004803603608081101561088657600080fd5b81019080803573ffffffffffffffffffffffffffffffffffffffff169060200190929190803573ffffffffffffffffffffffffffffffffffffffff169060200190929190803590602001909291908035906020019092919050505061198d565b005b61095e600480360360808110156108fe57600080fd5b81019080803573ffffffffffffffffffffffffffffffffffffffff169060200190929190803573ffffffffffffffffffffffffffffffffffffffff1690602001909291908035906020019092919080359060200190929190505050611f50565b005b6109686122b5565b6040518082815260200191505060405180910390f35b6109aa6004803603602081101561099457600080fd5b81019080803590602001909291905050506122bb565b604051808773ffffffffffffffffffffffffffffffffffffffff1673ffffffffffffffffffffffffffffffffffffffff1681526020018673ffffffffffffffffffffffffffffffffffffffff1673ffffffffffffffffffffffffffffffffffffffff168152602001858152602001848152602001838152602001828152602001965050505050505060405180910390f35b610a43612337565b005b610a4d6124fb565b6040518082815260200191505060405180910390f35b610a6b612501565b6040518082815260200191505060405180910390f35b610aad60048036036020811015610a9757600080fd5b8101908080359060200190929190505050612507565b604051808973ffffffffffffffffffffffffffffffffffffffff1673ffffffffffffffffffffffffffffffffffffffff1681526020018873ffffffffffffffffffffffffffffffffffffffff1673ffffffffffffffffffffffffffffffffffffffff1681526020018781526020018681526020018581526020018415151515815260200183151515158152602001821515151581526020019850505050505050505060405180910390f35b610b9a60048036036020811015610b6e57600080fd5b81019080803573ffffffffffffffffffffffffffffffffffffffff1690602001909291905050506125b6565b604051808573ffffffffffffffffffffffffffffffffffffffff1673ffffffffffffffffffffffffffffffffffffffff16815260200184815260200183815260200182815260200194505050505060405180910390f35b610bf9612606565b6040518082815260200191505060405180910390f35b610c6a60048036036060811015610c2557600080fd5b81019080803573ffffffffffffffffffffffffffffffffffffffff169060200190929190803515159060200190929190803560ff16906020019092919050505061260c565b005b610c7461281b565b604051808215151515815260200191505060405180910390f35b610c9661282e565b6040518082815260200191505060405180910390f35b610cd860048036036020811015610cc257600080fd5b8101908080359060200190929190505050612834565b604051808973ffffffffffffffffffffffffffffffffffffffff1673ffffffffffffffffffffffffffffffffffffffff1681526020018873ffffffffffffffffffffffffffffffffffffffff1673ffffffffffffffffffffffffffffffffffffffff1681526020018781526020018681526020018581526020018415151515815260200183151515158152602001821515151581526020019850505050505050505060405180910390f35b610d8b6128e3565b604051808273ffffffffffffffffffffffffffffffffffffffff1673ffffffffffffffffffffffffffffffffffffffff16815260200191505060405180910390f35b60065481565b600360009054906101000a900460ff16610dec57600080fd5b601260009054906101000a900460ff1615610e0657600080fd5b600760003373ffffffffffffffffffffffffffffffffffffffff1673ffffffffffffffffffffffffffffffffffffffff16815260200190815260200160002060010160169054906101000a900460ff16610e5f57600080fd5b600e6000815480929190600101919050555060405180608001604052803373ffffffffffffffffffffffffffffffffffffffff168152602001838152602001828152602001600654815250600d60003373ffffffffffffffffffffffffffffffffffffffff1673ffffffffffffffffffffffffffffffffffffffff16815260200190815260200160002060008201518160000160006101000a81548173ffffffffffffffffffffffffffffffffffffffff021916908373ffffffffffffffffffffffffffffffffffffffff16021790555060208201518160010155604082015181600201556060820151816003015590505081601054016010819055508060115401601181905550600954600e541415610f7c57610f7b61290f565b5b5050565b60015481565b60076020528060005260406000206000915090508060000154908060010160009054906101000a900473ffffffffffffffffffffffffffffffffffffffff16908060010160149054906101000a900460ff16908060010160159054906101000a900460ff16908060010160169054906101000a900460ff16908060020154905086565b600a5481565b3373ffffffffffffffffffffffffffffffffffffffff16600760003373ffffffffffffffffffffffffffffffffffffffff1673ffffffffffffffffffffffffffffffffffffffff16815260200190815260200160002060010160009054906101000a900473ffffffffffffffffffffffffffffffffffffffff1673ffffffffffffffffffffffffffffffffffffffff16146110a957600080fd5b600760003373ffffffffffffffffffffffffffffffffffffffff1673ffffffffffffffffffffffffffffffffffffffff16815260200190815260200160002060010160169054906101000a900460ff1661110257600080fd5b600960008154809291906001900391905055506000600760003373ffffffffffffffffffffffffffffffffffffffff1673ffffffffffffffffffffffffffffffffffffffff16815260200190815260200160002060010160166101000a81548160ff021916908315150217905550565b8973ffffffffffffffffffffffffffffffffffffffff163373ffffffffffffffffffffffffffffffffffffffff16146111aa57600080fd5b8a73ffffffffffffffffffffffffffffffffffffffff166015600083815260200190815260200160002060000160009054906101000a900473ffffffffffffffffffffffffffffffffffffffff1673ffffffffffffffffffffffffffffffffffffffff161461121857600080fd5b8860156000838152602001908152602001600020600201541461123a57600080fd5b8760156000838152602001908152602001600020600301541461125c57600080fd5b841561126757600080fd5b6040518061010001604052808c73ffffffffffffffffffffffffffffffffffffffff1681526020018b73ffffffffffffffffffffffffffffffffffffffff1681526020018a815260200189815260200188815260200187151581526020016001151581526020018515158152506017600089815260200190815260200160002060008201518160000160006101000a81548173ffffffffffffffffffffffffffffffffffffffff021916908373ffffffffffffffffffffffffffffffffffffffff16021790555060208201518160010160006101000a81548173ffffffffffffffffffffffffffffffffffffffff021916908373ffffffffffffffffffffffffffffffffffffffff16021790555060408201518160020155606082015181600301556080820151816004015560a08201518160050160006101000a81548160ff02191690831515021790555060c08201518160050160016101000a81548160ff02191690831515021790555060e08201518160050160026101000a81548160ff02191690831515021790555090505060186040518061010001604052808d73ffffffffffffffffffffffffffffffffffffffff1681526020018c73ffffffffffffffffffffffffffffffffffffffff1681526020018b81526020018a815260200189815260200188151581526020016001151581526020018615158152509080600181540180825580915050906001820390600052602060002090600602016000909192909190915060008201518160000160006101000a81548173ffffffffffffffffffffffffffffffffffffffff021916908373ffffffffffffffffffffffffffffffffffffffff16021790555060208201518160010160006101000a81548173ffffffffffffffffffffffffffffffffffffffff021916908373ffffffffffffffffffffffffffffffffffffffff16021790555060408201518160020155606082015181600301556080820151816004015560a08201518160050160006101000a81548160ff02191690831515021790555060c08201518160050160016101000a81548160ff02191690831515021790555060e08201518160050160026101000a81548160ff0219169083151502179055505050506019600081548092919060010191905055505050505050505050505050565b60195481565b601381815481106115d157fe5b90600052602060002090600602016000915090508060000160009054906101000a900473ffffffffffffffffffffffffffffffffffffffff16908060010160009054906101000a900473ffffffffffffffffffffffffffffffffffffffff16908060020154908060030154908060040154908060050160009054906101000a900460ff16908060050160019054906101000a900460ff16908060050160029054906101000a900460ff16905088565b601260009054906101000a900460ff1681565b60145481565b600e5481565b601260019054906101000a900460ff1681565b600260000160009054906101000a900473ffffffffffffffffffffffffffffffffffffffff1673ffffffffffffffffffffffffffffffffffffffff163373ffffffffffffffffffffffffffffffffffffffff161461170f57600080fd5b80600260000160006101000a81548173ffffffffffffffffffffffffffffffffffffffff021916908373ffffffffffffffffffffffffffffffffffffffff16021790555050565b600f818154811061176357fe5b90600052602060002090600402016000915090508060000160009054906101000a900473ffffffffffffffffffffffffffffffffffffffff16908060010154908060020154908060030154905084565b601881815481106117c057fe5b90600052602060002090600602016000915090508060000160009054906101000a900473ffffffffffffffffffffffffffffffffffffffff16908060010160009054906101000a900473ffffffffffffffffffffffffffffffffffffffff16908060020154908060030154908060040154908060050160009054906101000a900460ff16908060050160019054906101000a900460ff16908060050160029054906101000a900460ff16905088565b600260000160009054906101000a900473ffffffffffffffffffffffffffffffffffffffff1673ffffffffffffffffffffffffffffffffffffffff163373ffffffffffffffffffffffffffffffffffffffff16146118cc57600080fd5b6001600360006101000a81548160ff02191690831515021790555081600490805190602001906118fd9291906129e6565b508060058190555060006006819055506000600a81905550601360006119239190612a66565b6000600e819055506000601260006101000a81548160ff0219169083151502179055506000600981905550600060108190555060006011819055506000601260016101000a81548160ff021916908315150217905550600060148190555060006019819055505050565b8373ffffffffffffffffffffffffffffffffffffffff163373ffffffffffffffffffffffffffffffffffffffff16146119c557600080fd5b8273ffffffffffffffffffffffffffffffffffffffff163373ffffffffffffffffffffffffffffffffffffffff1614156119fe57600080fd5b600760003373ffffffffffffffffffffffffffffffffffffffff1673ffffffffffffffffffffffffffffffffffffffff16815260200190815260200160002060010160169054906101000a900460ff16611a5757600080fd5b600760008473ffffffffffffffffffffffffffffffffffffffff1673ffffffffffffffffffffffffffffffffffffffff16815260200190815260200160002060010160169054906101000a900460ff16611ab057600080fd5b8160001215611abe57600080fd5b600760008473ffffffffffffffffffffffffffffffffffffffff1673ffffffffffffffffffffffffffffffffffffffff16815260200190815260200160002060000154600a600760008773ffffffffffffffffffffffffffffffffffffffff1673ffffffffffffffffffffffffffffffffffffffff16815260200190815260200160002060000154020160168190555060136040518061010001604052808673ffffffffffffffffffffffffffffffffffffffff1681526020018573ffffffffffffffffffffffffffffffffffffffff1681526020018481526020018381526020016016548152602001600115158152602001600015158152602001601260019054906101000a900460ff1615158152509080600181540180825580915050906001820390600052602060002090600602016000909192909190915060008201518160000160006101000a81548173ffffffffffffffffffffffffffffffffffffffff021916908373ffffffffffffffffffffffffffffffffffffffff16021790555060208201518160010160006101000a81548173ffffffffffffffffffffffffffffffffffffffff021916908373ffffffffffffffffffffffffffffffffffffffff16021790555060408201518160020155606082015181600301556080820151816004015560a08201518160050160006101000a81548160ff02191690831515021790555060c08201518160050160016101000a81548160ff02191690831515021790555060e08201518160050160026101000a81548160ff0219169083151502179055505050506040518061010001604052808573ffffffffffffffffffffffffffffffffffffffff1681526020018473ffffffffffffffffffffffffffffffffffffffff1681526020018381526020018281526020016016548152602001600115158152602001600015158152602001601260019054906101000a900460ff16151581525060156000601654815260200190815260200160002060008201518160000160006101000a81548173ffffffffffffffffffffffffffffffffffffffff021916908373ffffffffffffffffffffffffffffffffffffffff16021790555060208201518160010160006101000a81548173ffffffffffffffffffffffffffffffffffffffff021916908373ffffffffffffffffffffffffffffffffffffffff16021790555060408201518160020155606082015181600301556080820151816004015560a08201518160050160006101000a81548160ff02191690831515021790555060c08201518160050160016101000a81548160ff02191690831515021790555060e08201518160050160026101000a81548160ff0219169083151502179055509050506001600760008573ffffffffffffffffffffffffffffffffffffffff1673ffffffffffffffffffffffffffffffffffffffff1681526020019081526020016000206002015401600760008573ffffffffffffffffffffffffffffffffffffffff1673ffffffffffffffffffffffffffffffffffffffff1681526020019081526020016000206002018190555060146000815480929190600101919050555050505050565b601260009054906101000a900460ff1615611f6e57611f6d612980565b5b600360009054906101000a900460ff16611f8757600080fd5b601260009054906101000a900460ff1615611fa157600080fd5b600760008573ffffffffffffffffffffffffffffffffffffffff1673ffffffffffffffffffffffffffffffffffffffff16815260200190815260200160002060010160169054906101000a900460ff16611ffa57600080fd5b600760008473ffffffffffffffffffffffffffffffffffffffff1673ffffffffffffffffffffffffffffffffffffffff16815260200190815260200160002060010160169054906101000a900460ff1661205357600080fd5b8373ffffffffffffffffffffffffffffffffffffffff163373ffffffffffffffffffffffffffffffffffffffff161461208b57600080fd5b8273ffffffffffffffffffffffffffffffffffffffff163373ffffffffffffffffffffffffffffffffffffffff1614156120c457600080fd5b6000600a5414156120e2576006600081548092919060010191905055505b600760008473ffffffffffffffffffffffffffffffffffffffff1673ffffffffffffffffffffffffffffffffffffffff16815260200190815260200160002060000154600a600760008773ffffffffffffffffffffffffffffffffffffffff1673ffffffffffffffffffffffffffffffffffffffff168152602001908152602001600020600001540201600b819055506040518060c001604052808573ffffffffffffffffffffffffffffffffffffffff1681526020018473ffffffffffffffffffffffffffffffffffffffff1681526020018381526020018281526020016006548152602001600b54815250600c6000600b54815260200190815260200160002060008201518160000160006101000a81548173ffffffffffffffffffffffffffffffffffffffff021916908373ffffffffffffffffffffffffffffffffffffffff16021790555060208201518160010160006101000a81548173ffffffffffffffffffffffffffffffffffffffff021916908373ffffffffffffffffffffffffffffffffffffffff16021790555060408201518160020155606082015181600301556080820151816004015560a08201518160050155905050600a6000815480929190600101919050555050505050565b60115481565b600c6020528060005260406000206000915090508060000160009054906101000a900473ffffffffffffffffffffffffffffffffffffffff16908060010160009054906101000a900473ffffffffffffffffffffffffffffffffffffffff16908060020154908060030154908060040154908060050154905086565b3373ffffffffffffffffffffffffffffffffffffffff16600760003373ffffffffffffffffffffffffffffffffffffffff1673ffffffffffffffffffffffffffffffffffffffff16815260200190815260200160002060010160009054906101000a900473ffffffffffffffffffffffffffffffffffffffff1673ffffffffffffffffffffffffffffffffffffffff16146123d157600080fd5b600360009054906101000a900460ff166123ea57600080fd5b600760003373ffffffffffffffffffffffffffffffffffffffff1673ffffffffffffffffffffffffffffffffffffffff16815260200190815260200160002060010160169054906101000a900460ff161561244457600080fd5b6009600081548092919060010191905055506001600760003373ffffffffffffffffffffffffffffffffffffffff1673ffffffffffffffffffffffffffffffffffffffff16815260200190815260200160002060010160166101000a81548160ff0219169083151502179055506000600760003373ffffffffffffffffffffffffffffffffffffffff1673ffffffffffffffffffffffffffffffffffffffff16815260200190815260200160002060020181905550565b60085481565b60095481565b60156020528060005260406000206000915090508060000160009054906101000a900473ffffffffffffffffffffffffffffffffffffffff16908060010160009054906101000a900473ffffffffffffffffffffffffffffffffffffffff16908060020154908060030154908060040154908060050160009054906101000a900460ff16908060050160019054906101000a900460ff16908060050160029054906101000a900460ff16905088565b600d6020528060005260406000206000915090508060000160009054906101000a900473ffffffffffffffffffffffffffffffffffffffff16908060010154908060020154908060030154905084565b60105481565b600260000160009054906101000a900473ffffffffffffffffffffffffffffffffffffffff1673ffffffffffffffffffffffffffffffffffffffff163373ffffffffffffffffffffffffffffffffffffffff161461266957600080fd5b6000600760008573ffffffffffffffffffffffffffffffffffffffff1673ffffffffffffffffffffffffffffffffffffffff16815260200190815260200160002060000154146126b857600080fd5b6008600081548092919060010191905055506040518060c0016040528060085481526020018473ffffffffffffffffffffffffffffffffffffffff16815260200183151581526020018260ff1681526020016000151581526020016000815250600760008573ffffffffffffffffffffffffffffffffffffffff1673ffffffffffffffffffffffffffffffffffffffff1681526020019081526020016000206000820151816000015560208201518160010160006101000a81548173ffffffffffffffffffffffffffffffffffffffff021916908373ffffffffffffffffffffffffffffffffffffffff16021790555060408201518160010160146101000a81548160ff02191690831515021790555060608201518160010160156101000a81548160ff021916908360ff16021790555060808201518160010160166101000a81548160ff02191690831515021790555060a08201518160020155905050505050565b600360009054906101000a900460ff1681565b60005481565b60176020528060005260406000206000915090508060000160009054906101000a900473ffffffffffffffffffffffffffffffffffffffff16908060010160009054906101000a900473ffffffffffffffffffffffffffffffffffffffff16908060020154908060030154908060040154908060050160009054906101000a900460ff16908060050160019054906101000a900460ff16908060050160029054906101000a900460ff16905088565b60028060000160009054906101000a900473ffffffffffffffffffffffffffffffffffffffff16905081565b6001601260006101000a81548160ff02191690831515021790555060005460105413158015612942575060015460115413155b1561297e576001601260016101000a81548160ff0219169083151502179055506000600360006101000a81548160ff0219169083151502179055505b565b6000600a81905550601360006129969190612a66565b6000600e819055506000601260006101000a81548160ff021916908315150217905550600060108190555060006011819055506000601260016101000a81548160ff021916908315150217905550565b828054600181600116156101000203166002900490600052602060002090601f016020900481019282601f10612a2757805160ff1916838001178555612a55565b82800160010185558215612a55579182015b82811115612a54578251825591602001919060010190612a39565b5b509050612a629190612a8a565b5090565b5080546000825560060290600052602060002090810190612a879190612aaf565b50565b612aac91905b80821115612aa8576000816000905550600101612a90565b5090565b90565b612b6d91905b80821115612b6957600080820160006101000a81549073ffffffffffffffffffffffffffffffffffffffff02191690556001820160006101000a81549073ffffffffffffffffffffffffffffffffffffffff02191690556002820160009055600382016000905560048201600090556005820160006101000a81549060ff02191690556005820160016101000a81549060ff02191690556005820160026101000a81549060ff021916905550600601612ab5565b5090565b9056fea265627a7a72315820d99380f14a91d0a31f1d435bb96acd10dab5d0b3dccb5706aebf259c2ecea1d864736f6c63430005100032",
  "source": "pragma solidity ^0.5.16;\r\n\r\ncontract Energy {\r\n    //public state variables are accessible by everyone who invokes contract on the network \r\n    //this contract assumes that every member of the blockchain is a member of the microgrid i.e. is able to participate in trades\r\n    //add a deletePeers() function\r\n        \r\n    //set these tolerances in constructor\r\n    int public pri_tol;\r\n    int public dual_tol;\r\n    //constructor: lists registered peers and admin account\r\n    //change for each ganache instance\r\n     constructor () public {\r\n        //set admin user - needed for testing\r\n        admin = Admin(0xC7Accd8F7F5fde77560ca0deEFdE6ee12AdABE61);\r\n        \r\n        //actual residual tolerances\r\n        pri_tol = 1;\r\n        dual_tol =1;\r\n\r\n        peersCount = 0;\r\n\r\n        //for module tests\r\n        // pri_tol = 7;\r\n        // dual_tol =7;\r\n\r\n\r\n    }\r\n\r\n    // Model a Peer\r\n    struct Peer {\r\n        int id;\r\n        address account;\r\n        bool prosumer;\r\n        uint8 building; //0 for commercial and 1 for residential\r\n        bool isPeerActive; //is peer participating in trading for this time period\r\n        uint num_trades_pending; //number of trades for this time period pending this peer's approval\r\n    }\r\n\r\n    //create an admin struct variable\r\n    //admin address/es can add peers and are responsible for initiating the trading period \r\n    struct Admin {\r\n        address admin_account;\r\n    }\r\n\r\n    Admin public admin;\r\n    //is trading period intiated? i.e. can trading iterations begin\r\n    bool public init;\r\n    //keep track of date and time set by admin- verifies that peers know they are trading at the correct date and time\r\n    string date;\r\n    uint time_per;\r\n    //keep public track of iteration for this time-period\r\n    uint public iteration;\r\n\r\n    //allows admin to set new admin account\r\n    function setAdmin(address new_admin) public {\r\n\r\n        require(msg.sender == admin.admin_account);\r\n        admin.admin_account = new_admin;\r\n    }\r\n\r\n\r\n    //add peer's address to list of peers that are connected in the microgrid- only admin can do this\r\n    function addPeer(address acc, bool role, uint8 build) public{\r\n        require(msg.sender == admin.admin_account);\r\n        require(peers[acc].id == int(0x0));\r\n        peersCount ++;\r\n        peers[acc] = Peer(peersCount, acc, role, build, false, 0);\r\n        \r\n    }\r\n\r\n\r\n    // Store Peers using their addresses\r\n    // Fetch Peers\r\n    mapping(address => Peer) public peers;\r\n    //map peers to an integer id\r\n    //mapping(int => Peer) public peersID;\r\n    // Store Peers Count\r\n    int public peersCount;\r\n\r\n    function startTradingPer(string memory date_set, uint time_period) public {\r\n            require(msg.sender == admin.admin_account);\r\n            init = true;\r\n            date = date_set;\r\n            time_per = time_period;\r\n            iteration = 0;\r\n            tradeCountIter = 0;\r\n            //delete trade_bids;\r\n            delete trades_pending;\r\n            //delete localres_list;\r\n            localresCounter =0;\r\n            iteration_complete = false;\r\n            peersTrading =0;\r\n            global_pres = 0;\r\n            global_dres = 0;\r\n            is_optimal = false;\r\n            trade_penCount = 0;\r\n            numApprovedTrades =0;\r\n            //delete approved;\r\n\r\n    }\r\n\r\n    //Store how many peers have registered to trade in time period\r\n    uint public peersTrading;\r\n    \r\n    //peer is registering to trade in time period\r\n    function registerPeer() public {\r\n        //peer needs to have been added by admin\r\n        require(peers[msg.sender].account == msg.sender);\r\n        //admin needs to have initiated trading period\r\n        require(init);\r\n        require(!peers[msg.sender].isPeerActive);\r\n        peersTrading ++;\r\n        peers[msg.sender].isPeerActive = true;\r\n        peers[msg.sender].num_trades_pending = 0;\r\n    }\r\n    \r\n    \r\n    //keep track of number of how trade bids have been submitted for this iteration\r\n    //set to 5 for testing\r\n    uint public tradeCountIter;\r\n\r\n     //NB: will need to split up kwh into decimals as well\r\n    struct Trade_bid {\r\n        //string date;\r\n       // uint time_period;\r\n        address from;\r\n        address to;\r\n        int kwh; //need to decide on scaling factor\r\n        int price; //given in cents\r\n        uint iteration;\r\n        int id;\r\n    }\r\n    \r\n    int id_set;\r\n\r\n    // list of trade_bids for current iteration for current time_period\r\n    //Trade_bid [] public trade_bids; \r\n\r\n    //create mapping of trade_bids to trade ids\r\n    mapping(int => Trade_bid) public trade_bids_mapping;\r\n\r\n    //add trade bid to list of trade bids for this iteration- assumes peer won't submit duplicate trade bids \r\n    function addTradeBid (address s, address buy, int amount, int price_c) public {\r\n        //if previous iteration was completed\r\n        if (iteration_complete){newIteration();}\r\n        //check that trading period is initiated\r\n        require(init);\r\n        require(!iteration_complete);\r\n        //check if sender address is members of the microgrid\r\n        require(peers[s].isPeerActive);\r\n        //check if buyer address is member of the microgrid\r\n        require(peers[buy].isPeerActive);\r\n        //requires that the person adding the trade bid is the account set as the sender\r\n        require(msg.sender == s);\r\n        //requires that the sender is not also the buyer\r\n        require(msg.sender != buy);\r\n        //requires peer to insert correct time_period\r\n        //require(time_period==time_per);\r\n        //requires peer to insert correct date\r\n       // require(keccak256(abi.encodePacked(date)) == keccak256(abi.encodePacked(date_peer)));\r\n        if (tradeCountIter ==0){iteration++;}\r\n        //set the id\r\n        id_set = (peers[s].id * 10)+ (peers[buy].id);\r\n        //trade_bids.push(Trade_bid(date, time_period, s, buy, amount, price_c, iteration, id_set));\r\n        trade_bids_mapping[id_set] = Trade_bid(s, buy, amount, price_c, iteration, id_set);\r\n        tradeCountIter++;\r\n        \r\n    }\r\n    //NB: will need to decide by what magnitude of 10 we will be multiplying actual residual value in order\r\n    // to store it in this mapping\r\n\r\n    function newIteration() private {\r\n\r\n        tradeCountIter = 0;\r\n        delete trades_pending;\r\n        //delete localres_list;\r\n        localresCounter =0;\r\n        iteration_complete = false;\r\n        global_pres = 0;\r\n        global_dres = 0;\r\n        is_optimal = false;\r\n\r\n    }\r\n    struct localRes{\r\n\r\n        address from;\r\n        int primal_res;\r\n        int dual_res;\r\n        uint iteration;\r\n\r\n    }\r\n    \r\n    //maps addresses to local residuals for addresses \r\n    mapping (address => localRes) public localres;\r\n\r\n    //keep track of how many peers have submitted local residuals for this iteration \r\n    uint public localresCounter; \r\n\r\n    //store the submitted local residuals for this iteration\r\n    localRes [] public localres_list; \r\n\r\n    //global residuals = running sum of local residuals.  Make these private after testing?\r\n    int public global_pres;\r\n    int public global_dres;\r\n\r\n\r\n    //is iteration complete? i.e. have all local residuals for this iteration been submitted\r\n    bool public iteration_complete;\r\n    bool public is_optimal;\r\n\r\n    //add trade bid to list of trade bids for this iteration- assumes that each peer will not submit more than one local res per iteration\r\n    function addLocalRes (int p_res, int d_res) public {\r\n        //all trade bids need to be submitted for local residuals to be submitted\r\n        //if (iteration != 0){\r\n        //    require(tradeCountIter == ((peersTrading)*(peersTrading-1)));\r\n        //}\r\n        require(init);\r\n        require(!iteration_complete);\r\n        //requires that person submitting local residual to blockchain is a member of the microgrid\r\n        require(peers[msg.sender].isPeerActive);\r\n        localresCounter++;\r\n        localres[msg.sender] = localRes(msg.sender, p_res, d_res, iteration);\r\n        //add localres to localres_list if people want to see local residuals currently sent to smart contract for this iteration\r\n        //localres_list.push(localRes(msg.sender, p_res, d_res, iteration));\r\n        global_pres = global_pres + p_res;\r\n        global_dres = global_dres + d_res;\r\n        if (localresCounter == peersTrading){checkOptimal();}\r\n\r\n    }\r\n\r\n    function checkOptimal() private {\r\n            iteration_complete=true;\r\n            if ((global_pres<= pri_tol) && (global_dres<=dual_tol)){\r\n                \r\n                is_optimal = true;\r\n                //end iteration cycle for this trading period\r\n                init = false;\r\n                \r\n                \r\n                }\r\n\r\n    }\r\n\r\n\r\n    //only person SENDING money can create a Trade struct- by using their private key to sign this transaction, approves the transfer of money.  Almost like end of bidding process.\r\n    struct Trade {\r\n        \r\n        //string date;\r\n        //uint time_period;\r\n        address from;\r\n        address to; \r\n        int kwh;\r\n        int price_c;\r\n        int id; //make an id for trade using buyer and seller\r\n        bool approve_from;\r\n        bool approve_to;\r\n        bool optimal;\r\n\r\n    }\r\n\r\n   \r\n   //store pending trades for this time period.  Pending trades are trades that have been created by sender but are pending approval from recipient in order to be binding.\r\n    Trade [] public trades_pending;\r\n    uint public trade_penCount;\r\n    mapping (int => Trade) public trades_pending_mapping;\r\n\r\n    int private trade_id;\r\n    //create counter for trades\r\n    //check if tradeCounterIter is correct and that localresCounter == peersCount for trade bid to be made\r\n    function createTrade(address from, address to, int amount, int price) public {\r\n        require(msg.sender == from);\r\n        require(msg.sender!=to);\r\n        require(peers[msg.sender].isPeerActive);\r\n        require(peers[to].isPeerActive);\r\n        //require(time_period==time_per);\r\n        require(0>=amount);\r\n        //requires peer to insert correct date\r\n       // require(keccak256(abi.encodePacked(date)) == keccak256(abi.encodePacked(date_peer)));\r\n        //make array of created trades for that time period\r\n        trade_id = (peers[from].id) * 10 + peers[to].id;\r\n        //if ((trade_bids_mapping[trade_id].kwh == amount) && (trade_bids_mapping[trade_id].price==price)){\r\n        trades_pending.push(Trade(from, to, amount, price, trade_id, true, false, is_optimal));\r\n        trades_pending_mapping[trade_id] = Trade(from, to, amount, price, trade_id, true, false, is_optimal);\r\n        peers[to].num_trades_pending = peers[to].num_trades_pending + 1;\r\n        trade_penCount ++;\r\n        //}\r\n        \r\n        //else {\r\n\r\n          //  trades_pending.push(Trade(date, time_period, from, to, amount, price, trade_id, true, false, false));\r\n           // trade_penCount ++;\r\n        //}\r\n\r\n    }\r\n\r\n\r\n\r\n    //create mapping for id to approved trades between those added peers for this time period\r\n    mapping (int => Trade) public approved_trades; //do I need this mapping?\r\n    Trade [] public approved; \r\n\r\n    //running counter of how many trades have been approved for this time period\r\n    uint public numApprovedTrades;\r\n\r\n    function approveTrade(address trade_from, address trade_to, int trade_kwh, int trade_price_c, int id, bool trade_approve_from, bool trade_approve_to, bool trade_optimal, string memory date_approved, uint time_approved, int trades_pending_ind) public {\r\n            \r\n            require(msg.sender == trade_to);\r\n            //trade must be listed have been created correctly\r\n            require(trades_pending_mapping[trades_pending_ind].from == trade_from);\r\n            require(trades_pending_mapping[trades_pending_ind].kwh == trade_kwh);\r\n            require(trades_pending_mapping[trades_pending_ind].price_c == trade_price_c);\r\n            //require(keccak256(abi.encodePacked(trade_date)) == keccak256(abi.encodePacked(date_approved)));\r\n            //require(time_approved==trade_time);\r\n            require(!trade_approve_to);\r\n            approved_trades[id]  = Trade(trade_from, trade_to, trade_kwh, trade_price_c, id, trade_approve_from, true, trade_optimal);\r\n            approved.push(Trade(trade_from, trade_to, trade_kwh, trade_price_c, id, trade_approve_from, true, trade_optimal));\r\n            numApprovedTrades++;\r\n\r\n\r\n    \r\n    }\r\n\r\n    //peers need to call this to indicate that they have completed their trading for this time period\r\n    function deregisterPeer() public {\r\n        //peer needs to have been added by admin\r\n        require(peers[msg.sender].account == msg.sender);\r\n        //admin needs to have initiated trading period\r\n        require(peers[msg.sender].isPeerActive);\r\n        peersTrading --;\r\n        peers[msg.sender].isPeerActive = false;\r\n    }\r\n    \r\n}\r\n\r\n",
  "sourcePath": "C:/Users/Inessa/Desktop/4th_Year/FYP/Methodology_Eth/energy/contracts/Energy.sol",
  "compiler": {
    "name": "solc",
    "version": "0.5.16+commit.9c3226ce.Emscripten.clang"
  },
  "schemaVersion": "3.3.0",
  "updatedAt": "2020-11-08T21:09:59.245Z",
  "networkType": "ethereum",
  "devdoc": {
    "methods": {}
  },
  "userdoc": {
    "methods": {}
  }
}